:100000000C9472000C948B000C948B000C948B005D
:100010000C948B000C948B000C948B000C948B0034
:100020000C948B000C948B000C948B000C948B0024
:100030000C948B000C948B000C948B000C948B0014
:100040000C948B000C948B000C948B000C948B0004
:100050000C948B000C948B000C948B000C948B00F4
:100060000C948B000C948B000C948B000C948B00E4
:100070000C948B000C948B000C948B000C948B00D4
:100080000C948B000C948B000C948B000C948B00C4
:100090000C948B000C948B000C948B000C948B00B4
:1000A0000C948B000C948B000C94CF000C948B0060
:1000B0000C948B000C948B000C948B000C948B0094
:1000C0000C948B000C948B000C948B000C948B0084
:1000D0000C948B000C948B000C948B000C948B0074
:1000E0000C948B0011241FBECFEFD1E2DEBFCDBF39
:1000F00000E00CBF12E0A0E0B2E0E0EFF4E000E0CE
:100100000BBF02C007900D92A831B107D9F70E942A
:10011000DF000C9476020C940000CF93DF93CDB7F0
:10012000DEB768970FB6F894DEBF0FBECDBF28E1EB
:10013000E0E0F2E0DE01119601900D922A95E1F7E0
:100140009B012150304C220F331F220F331F820F8F
:10015000931FFB013197EE0FFF1FEE0FFF1F21E0F2
:1001600030E02C0F3D1FE20FF31F208131814281CF
:100170005381FC0160817181828193810E94090217
:1001800020E030E04AE754E40E944B0168960FB645
:10019000F894DEBF0FBECDBFDF91CF9108951F92BF
:1001A0000F920FB60F9211248F938FEF8EB9809319
:1001B00002018F910F900FBE0F901F9018958DB177
:1001C00088678DB9809101018867809301018EE075
:1001D0008093A0008AE18093A100F894809172003E
:1001E0008260809372008FE19EE49093A7008093D9
:1001F000A60078948091A4009091A500803293404D
:10020000C8F38091A4009091A5008136994090F7A1
:100210008091A4009091A500883E934048F0809181
:10022000020184FF05C0809102018F7E809302014C
:100230008FE39CE90197F1F700C000008091A400D2
:100240009091A5008C3D954048F08091020184FF7B
:1002500005C0809102018F7E809302018FE39CE9AB
:100260000197F1F700C000008091A4009091A500D3
:10027000883E934048F08091020184FF05C0809140
:1002800002018F7E809302018FE39CE90197F1F7D1
:1002900000C00000AFCF5058BB27AA270E946301BF
:1002A0000C94CF010E94C10138F00E94C80120F0D7
:1002B00039F49F3F19F426F40C94BE010EF4E09536
:1002C000E7FB0C94B801E92F0E94E00158F3BA173C
:1002D000620773078407950720F079F4A6F50C945C
:1002E00002020EF4E0950B2EBA2FA02D0B01B901DE
:1002F00090010C01CA01A0011124FF27591B99F09C
:10030000593F50F4503E68F11A16F040A22F232FA7
:10031000342F4427585FF3CF469537952795A795F7
:10032000F0405395C9F77EF41F16BA0B620B730B9E
:10033000840BBAF09150A1F0FF0FBB1F661F771F0F
:10034000881FC2F70EC0BA0F621F731F841F48F4C4
:10035000879577956795B795F7959E3F08F0B0CF4D
:100360009395880F08F09927EE0F97958795089534
:1003700097F99F6780E870E060E008959FEF80EC58
:10038000089500240A9416161706180609060895FB
:1003900000240A9412161306140605060895092E61
:1003A0000394000C11F4882352F0BB0F40F4BF2BD0
:1003B00011F460FF04C06F5F7F4F8F4F9F4F089510
:1003C00057FD9058440F551F59F05F3F71F0479506
:1003D000880F97FB991F61F09F3F79F087950895EB
:1003E000121613061406551FF2CF4695F1DF08C00A
:1003F000161617061806991FF1CF86957105610527
:1004000008940895E894BB2766277727CB0197F9CE
:1004100008950E941C020C94CF010E94C10138F083
:100420000E94C80120F0952311F00C94B8010C949F
:10043000BE0111240C9403020E94E00170F3959F09
:10044000C1F3950F50E0551F629FF001729FBB27CB
:10045000F00DB11D639FAA27F00DB11DAA1F649F67
:100460006627B00DA11D661F829F2227B00DA11D1A
:10047000621F739FB00DA11D621F839FA00D611DA0
:10048000221F749F3327A00D611D231F849F600DC1
:10049000211D822F762F6A2F11249F5750409AF0EA
:1004A000F1F088234AF0EE0FFF1FBB1F661F771F76
:1004B000881F91505040A9F79E3F510580F00C9441
:1004C000B8010C9403025F3FE4F3983ED4F38695A1
:1004D00077956795B795F795E7959F5FC1F7FE2BE1
:1004E000880F911D9695879597F90895F894FFCFF9
:1004F0000000D84100009041000090410000D84128
:080500000000D8410000D841C1
:00000001FF
